{
  "_format": "hh-sol-artifact-1",
  "contractName": "TrdelnikGame",
  "sourceName": "contracts/Game.sol",
  "abi": [
    {
      "inputs": [],
      "stateMutability": "payable",
      "type": "constructor"
    },
    {
      "anonymous": false,
      "inputs": [
        {
          "indexed": true,
          "internalType": "uint256",
          "name": "gameId",
          "type": "uint256"
        },
        {
          "indexed": false,
          "internalType": "uint256",
          "name": "payout",
          "type": "uint256"
        }
      ],
      "name": "Cashout",
      "type": "event"
    },
    {
      "anonymous": false,
      "inputs": [
        {
          "indexed": true,
          "internalType": "uint256",
          "name": "gameId",
          "type": "uint256"
        },
        {
          "indexed": false,
          "internalType": "uint8",
          "name": "step",
          "type": "uint8"
        }
      ],
      "name": "GameLost",
      "type": "event"
    },
    {
      "anonymous": false,
      "inputs": [
        {
          "indexed": true,
          "internalType": "uint256",
          "name": "gameId",
          "type": "uint256"
        },
        {
          "indexed": true,
          "internalType": "address",
          "name": "player",
          "type": "address"
        },
        {
          "indexed": false,
          "internalType": "enum TrdelnikGame.Difficulty",
          "name": "difficulty",
          "type": "uint8"
        },
        {
          "indexed": false,
          "internalType": "uint256",
          "name": "bet",
          "type": "uint256"
        }
      ],
      "name": "GameStarted",
      "type": "event"
    },
    {
      "anonymous": false,
      "inputs": [
        {
          "indexed": true,
          "internalType": "uint256",
          "name": "gameId",
          "type": "uint256"
        },
        {
          "indexed": false,
          "internalType": "uint8",
          "name": "step",
          "type": "uint8"
        }
      ],
      "name": "StepRequested",
      "type": "event"
    },
    {
      "anonymous": false,
      "inputs": [
        {
          "indexed": true,
          "internalType": "uint256",
          "name": "gameId",
          "type": "uint256"
        },
        {
          "indexed": false,
          "internalType": "uint8",
          "name": "step",
          "type": "uint8"
        },
        {
          "indexed": false,
          "internalType": "bool",
          "name": "success",
          "type": "bool"
        }
      ],
      "name": "StepResult",
      "type": "event"
    },
    {
      "stateMutability": "payable",
      "type": "fallback"
    },
    {
      "inputs": [],
      "name": "_currentTimestamp",
      "outputs": [
        {
          "internalType": "uint256",
          "name": "",
          "type": "uint256"
        }
      ],
      "stateMutability": "view",
      "type": "function"
    },
    {
      "inputs": [],
      "name": "_secretNumber",
      "outputs": [
        {
          "internalType": "uint16",
          "name": "",
          "type": "uint16"
        }
      ],
      "stateMutability": "view",
      "type": "function"
    },
    {
      "inputs": [
        {
          "internalType": "uint256",
          "name": "gameId",
          "type": "uint256"
        }
      ],
      "name": "doCashout",
      "outputs": [],
      "stateMutability": "nonpayable",
      "type": "function"
    },
    {
      "inputs": [
        {
          "internalType": "uint256",
          "name": "",
          "type": "uint256"
        }
      ],
      "name": "games",
      "outputs": [
        {
          "internalType": "address",
          "name": "player",
          "type": "address"
        },
        {
          "internalType": "enum TrdelnikGame.Difficulty",
          "name": "difficulty",
          "type": "uint8"
        },
        {
          "internalType": "uint8",
          "name": "currentStep",
          "type": "uint8"
        },
        {
          "internalType": "uint256",
          "name": "bet",
          "type": "uint256"
        },
        {
          "internalType": "bool",
          "name": "active",
          "type": "bool"
        },
        {
          "internalType": "bool",
          "name": "lost",
          "type": "bool"
        }
      ],
      "stateMutability": "view",
      "type": "function"
    },
    {
      "inputs": [],
      "name": "nextGameId",
      "outputs": [
        {
          "internalType": "uint256",
          "name": "",
          "type": "uint256"
        }
      ],
      "stateMutability": "view",
      "type": "function"
    },
    {
      "inputs": [
        {
          "internalType": "uint256",
          "name": "gameId",
          "type": "uint256"
        }
      ],
      "name": "playStep",
      "outputs": [],
      "stateMutability": "nonpayable",
      "type": "function"
    },
    {
      "inputs": [
        {
          "internalType": "enum TrdelnikGame.Difficulty",
          "name": "difficulty",
          "type": "uint8"
        }
      ],
      "name": "startGame",
      "outputs": [
        {
          "internalType": "uint256",
          "name": "gameId",
          "type": "uint256"
        }
      ],
      "stateMutability": "payable",
      "type": "function"
    },
    {
      "stateMutability": "payable",
      "type": "receive"
    }
  ],
  "bytecode": "0x60806040526001600081905562000019906018906200085f565b60ff166001600160401b038111156200003657620000366200088d565b60405190808252806020026020018201604052801562000060578160200160208202803683370190505b50600080526005602090815281516200008c92600080516020620018a483398151915292019062000729565b506200009b601660016200085f565b60ff166001600160401b03811115620000b857620000b86200088d565b604051908082528060200260200182016040528015620000e2578160200160208202803683370190505b5060016000526005602090815281516200010f926000805160206200186483398151915292019062000729565b506200011e601460016200085f565b60ff166001600160401b038111156200013b576200013b6200088d565b60405190808252806020026020018201604052801562000165578160200160208202803683370190505b50600260005260056020908152815162000192926000805160206200188483398151915292019062000729565b50620001a1600f60016200085f565b60ff166001600160401b03811115620001be57620001be6200088d565b604051908082528060200260200182016040528015620001e8578160200160208202803683370190505b50600360005260056020908152815162000226927fa9bc9a3a348c357ba16b37005d7e6b3236198c0e939f4af8c5f19b8deeb8ebc092019062000729565b50604080516103408101825260008082526127d8602080840191909152612bd193830193909352612fca60608301526133c360808301526137bc60a0830152613bb560c0830152613fae60e08301526143a76101008301526147a0610120830152614b99610140830152614f9261016083015261538b6101808301526157846101a0830152615b7d6101c0830152615f766101e083015261636f610200830152616768610220830152616b61610240830152616f5a61026083015261735361028083015261774c6102a0830152617b456102c0830152617f3e6102e0830152618337610300830152618730610320830152805260059091526200033c90600080516020620018a483398151915290601a62000779565b50604080516102e0810182526000808252612b5c6020808401919091526152d093830193909352617a44606083015261a1b8608083015261c92c60a083015261f0a060c08301526201181460e083015262013f88610100830152620166fc61012083015262018e706101408301526201b5e46101608301526201dd58610180830152620204cc6101a083015262022c406101c0830152620253b46101e083015262027b286102008301526202a29c6102208301526202ca106102408301526202f184610260830152620318f86102808301526203406c6102a0830152620370786102c0830152600190526005909152620004499060008051602062001864833981519152906017620007bd565b50604080516102a0810182526000808252612fa8602080840191909152616acc9383019390935261a5f0606083015261e114608083015262011c3860a08301526201575c60c08301526201928060e08301526201cda4610100830152620208c8610120830152620243ec61014083015262027f106101608301526202ba346101808301526202f5586101a08301526203307c6101c083015262036ba06101e08301526203a6c46102008301526203e1e861022083015262041d0c61024083015262045830610260830152624f72d3610280830152600290526005909152620005449060008051602062001884833981519152906015620007bd565b5060408051610200810182526000808252613fac60208084019190915262037bc5938301939093526206b7de60608301526209f3f76080830152620d301060a083015262106c2960c08301526213a84260e08301526216e45b610100830152621a2074610120830152621d5c8d610140830152622098a66101608301526223d4bf610180830152622710d86101a0830152622a4cf16101c0830152631317fa306101e083015260039052600590915262000622907fa9bc9a3a348c357ba16b37005d7e6b3236198c0e939f4af8c5f19b8deeb8ebc090601062000802565b506200062d62000653565b600180546001600160a01b0319166001600160a01b0392909216919091179055620008d5565b600073ad67fe66660fb8dfe9d6b1b4240d8650e30f60196001600160a01b031663159354a2604051602001620006ab906020808252600e908201526d2930b73237b6a73ab6b132b92b1960911b604082015260600190565b604051602081830303815290604052805190602001206040518263ffffffff1660e01b8152600401620006e091815260200190565b602060405180830381865afa158015620006fe573d6000803e3d6000fd5b505050506040513d601f19601f82011682018060405250810190620007249190620008a3565b905090565b82805482825590600052602060002090810192821562000767579160200282015b82811115620007675782518255916020019190600101906200074a565b506200077592915062000848565b5090565b82805482825590600052602060002090810192821562000767579160200282015b8281111562000767578251829061ffff169055916020019190600101906200079a565b82805482825590600052602060002090810192821562000767579160200282015b8281111562000767578251829062ffffff16905591602001919060010190620007de565b82805482825590600052602060002090810192821562000767579160200282015b8281111562000767578251829063ffffffff1690559160200191906001019062000823565b5b8082111562000775576000815560010162000849565b60ff81811683821601908111156200088757634e487b7160e01b600052601160045260246000fd5b92915050565b634e487b7160e01b600052604160045260246000fd5b600060208284031215620008b657600080fd5b81516001600160a01b0381168114620008ce57600080fd5b9392505050565b610f7f80620008e56000396000f3fe60806040526004361061006e5760003560e01c8063a337ace91161004b578063a337ace914610137578063b135bbb01461016c578063c2843bf414610190578063e6ab6079146101a657005b80630d5aa21114610077578063117a5b9014610097578063264ac73f1461011757005b3661007557005b005b34801561008357600080fd5b50610075610092366004610d5f565b6101b9565b3480156100a357600080fd5b506100fc6100b2366004610d5f565b6003602052600090815260409020805460018201546002909201546001600160a01b0382169260ff600160a01b8404811693600160a81b9004811692808216916101009091041686565b60405161010e96959493929190610db0565b60405180910390f35b34801561012357600080fd5b50610075610132366004610d5f565b61036e565b34801561014357600080fd5b5060015461015990600160a01b900461ffff1681565b60405161ffff909116815260200161010e565b34801561017857600080fd5b5061018260045481565b60405190815260200161010e565b34801561019c57600080fd5b5061018260025481565b6101826101b4366004610df6565b610436565b6101c16105f4565b600081815260036020526040902080546001600160a01b0316331461021d5760405162461bcd60e51b815260206004820152600d60248201526c6e6f742d796f75722d67616d6560981b60448201526064015b60405180910390fd5b600281015460ff16801561023b57506002810154610100900460ff16155b6102705760405162461bcd60e51b815260206004820152600660248201526518d85b9b9bdd60d21b6044820152606401610214565b60028101805460ff19169055805460018201546000916102a49160ff600160a01b8304811692600160a81b9004169061064d565b9050804710156102eb5760405162461bcd60e51b815260206004820152601260248201527118dbdb9d1c9858dd0b5a5b9cdbdb1d995b9d60721b6044820152606401610214565b827fd12934ab6b2c232d99d6b29373b2aa12b9c6cce99a5484c40be61e38627ab99a8260405161031d91815260200190565b60405180910390a281546040516001600160a01b039091169082156108fc029083906000818181858888f1935050505015801561035e573d6000803e3d6000fd5b50505061036b6001600055565b50565b6103766105f4565b600081815260036020526040902080546001600160a01b031633146103cd5760405162461bcd60e51b815260206004820152600d60248201526c6e6f742d796f75722d67616d6560981b6044820152606401610214565b600281015460ff1680156103eb57506002810154610100900460ff16155b6104225760405162461bcd60e51b8152602060048201526008602482015267696e61637469766560c01b6044820152606401610214565b61042b826106dd565b5061036b6001600055565b60006104406105f4565b6000341161047d5760405162461bcd60e51b815260206004820152600a60248201526907374616b65203d3d20360b41b6044820152606401610214565b6004805490600061048d83610e2d565b9190505590506040518060c00160405280336001600160a01b031681526020018360038111156104bf576104bf610d78565b81526000602080830182905234604080850191909152600160608501526080909301829052848252600380825292909120835181546001600160a01b039091166001600160a01b0319821681178355928501519193919284926001600160a81b03199092161790600160a01b90849081111561053d5761053d610d78565b0217905550604082810151825460ff909116600160a81b0260ff60a81b199091161782556060830151600183015560808301516002909201805460a09094015115156101000261ff00199315159390931661ffff19909416939093179190911790915551339082907f94f16e44c79109eef01445060bd1ecab32afe33b66fc11d540728626ca3b96bc906105d49086903490610e46565b60405180910390a36105e5816106dd565b6105ef6001600055565b919050565b6002600054036106465760405162461bcd60e51b815260206004820152601f60248201527f5265656e7472616e637947756172643a207265656e7472616e742063616c6c006044820152606401610214565b6002600055565b60008260ff166000036106615750806106d6565b60006005600086600381111561067957610679610d78565b600381111561068a5761068a610d78565b81526020019081526020016000208460ff16815481106106ac576106ac610e61565b9060005260206000200154905061271081846106c89190610e77565b6106d29190610ea4565b9150505b9392505050565b6000818152600360205260408120805490919061070590600160a81b900460ff166001610eb8565b825490915061071d90600160a01b900460ff16610785565b60ff168160ff16111561075a5760405162461bcd60e51b81526020600482015260056024820152641b585e195960da1b6044820152606401610214565b61076760006127106107f1565b600154610780908490600160a01b900461ffff166109c7565b505050565b60008082600381111561079a5761079a610d78565b036107a757506018919050565b60018260038111156107bb576107bb610d78565b036107c857506016919050565b60028260038111156107dc576107dc610d78565b036107e957506014919050565b50600f919050565b818110156108315760405162461bcd60e51b815260206004820152600d60248201526c696e76616c69642d72616e676560981b6044820152606401610214565b6000806000600160009054906101000a90046001600160a01b03166001600160a01b031663dbdff2c16040518163ffffffff1660e01b8152600401606060405180830381865afa158015610889573d6000803e3d6000fd5b505050506040513d601f19601f820116820180604052508101906108ad9190610ed1565b9250925092508161090b5760405162461bcd60e51b815260206004820152602260248201527f756e61626c6520746f2067656e6572617465206120736563757265206e756d6260448201526132b960f11b6064820152608401610214565b600254810361096d5760405162461bcd60e51b815260206004820152602860248201527f6e6f206e65772072616e646f6d206e756d6265722068617665206265656e2067604482015267195b995c985d195960c21b6064820152608401610214565b60006109798686610f0f565b610984906001610f22565b905060006109928286610f35565b61099c9088610f22565b6001805461ffff909216600160a01b0261ffff60a01b19909216919091179055505060025550505050565b600082815260036020526040812080549091906109ed90600160a01b900460ff16610b7f565b90506000610a038461ffff168361ffff16610bef565b835490915085907f4b502164182f2d7793d9173b6b0ed6ebff462de90f38c894f1504450dbd39f7890610a4190600160a81b900460ff166001610eb8565b6040805160ff909216825284151560208301520160405180910390a280610ac85760028301805461ffff1916610100179055825485907f03905497842696a6aa48d0127e47dc21b05d78a38f630396a3642eaf015a3ee690610aae90600160a81b900460ff166001610eb8565b60405160ff909116815260200160405180910390a2610b78565b82546001908490601590610ae7908490600160a81b900460ff16610eb8565b82546101009290920a60ff8181021990931691831602179091558454604051600160a81b90910490911681528691507f3049dec64bfa4547b18f4f06f487b8752dcb5684014bbaa4fefb72b2bf67e94c9060200160405180910390a28254610b5890600160a01b900460ff16610785565b835460ff918216600160a81b90910490911603610b7857610b7885610c0a565b5050505050565b600080826003811115610b9457610b94610d78565b03610ba25750612328919050565b6001826003811115610bb657610bb6610d78565b03610bc45750612134919050565b6002826003811115610bd857610bd8610d78565b03610be65750611b58919050565b5061157c919050565b600080610bfe61271085610f35565b83119150505b92915050565b6000818152600360205260409020600281015460ff168015610c3657506002810154610100900460ff16155b610c6b5760405162461bcd60e51b815260206004820152600660248201526518d85b9b9bdd60d21b6044820152606401610214565b60028101805460ff1916905580546001820154600091610c9f9160ff600160a01b8304811692600160a81b9004169061064d565b905080471015610ce65760405162461bcd60e51b815260206004820152601260248201527118dbdb9d1c9858dd0b5a5b9cdbdb1d995b9d60721b6044820152606401610214565b827fd12934ab6b2c232d99d6b29373b2aa12b9c6cce99a5484c40be61e38627ab99a82604051610d1891815260200190565b60405180910390a281546040516001600160a01b039091169082156108fc029083906000818181858888f19350505050158015610d59573d6000803e3d6000fd5b50505050565b600060208284031215610d7157600080fd5b5035919050565b634e487b7160e01b600052602160045260246000fd5b60048110610dac57634e487b7160e01b600052602160045260246000fd5b9052565b6001600160a01b038716815260c08101610dcd6020830188610d8e565b60ff95909516604082015260608101939093529015156080830152151560a09091015292915050565b600060208284031215610e0857600080fd5b8135600481106106d657600080fd5b634e487b7160e01b600052601160045260246000fd5b600060018201610e3f57610e3f610e17565b5060010190565b60408101610e548285610d8e565b8260208301529392505050565b634e487b7160e01b600052603260045260246000fd5b8082028115828204841417610c0457610c04610e17565b634e487b7160e01b600052601260045260246000fd5b600082610eb357610eb3610e8e565b500490565b60ff8181168382160190811115610c0457610c04610e17565b600080600060608486031215610ee657600080fd5b8351925060208401518015158114610efd57600080fd5b80925050604084015190509250925092565b81810381811115610c0457610c04610e17565b80820180821115610c0457610c04610e17565b600082610f4457610f44610e8e565b50069056fea264697066735822122042fd85961d194313846afb5163975462788513655044f23b68535c5e0f088f0f64736f6c634300081400331471eb6eb2c5e789fc3de43f8ce62938c7d1836ec861730447e2ada8fd81017b89832631fb3c3307a103ba2c84ab569c64d6182a18893dcd163f0f1c2090733a05b8ccbb9d4d8fb16ea74ce3c29a41f1b461fbdaff4714a0d9a8eb05499746bc",
  "linkReferences": {},
  "deployedLinkReferences": {}
}