{
  "_format": "hh-sol-artifact-1",
  "contractName": "BerachainGame",
  "sourceName": "contracts/BerachainGame.sol",
  "abi": [
    {
      "inputs": [
        {
          "internalType": "address",
          "name": "_entropy",
          "type": "address"
        },
        {
          "internalType": "address",
          "name": "_entropyProvider",
          "type": "address"
        }
      ],
      "stateMutability": "payable",
      "type": "constructor"
    },
    {
      "anonymous": false,
      "inputs": [
        {
          "indexed": true,
          "internalType": "uint256",
          "name": "gameId",
          "type": "uint256"
        },
        {
          "indexed": false,
          "internalType": "uint256",
          "name": "payout",
          "type": "uint256"
        }
      ],
      "name": "Cashout",
      "type": "event"
    },
    {
      "anonymous": false,
      "inputs": [
        {
          "indexed": true,
          "internalType": "uint256",
          "name": "gameId",
          "type": "uint256"
        },
        {
          "indexed": false,
          "internalType": "uint8",
          "name": "step",
          "type": "uint8"
        }
      ],
      "name": "GameLost",
      "type": "event"
    },
    {
      "anonymous": false,
      "inputs": [
        {
          "indexed": true,
          "internalType": "uint256",
          "name": "gameId",
          "type": "uint256"
        },
        {
          "indexed": true,
          "internalType": "address",
          "name": "player",
          "type": "address"
        },
        {
          "indexed": false,
          "internalType": "enum BerachainGame.Difficulty",
          "name": "difficulty",
          "type": "uint8"
        },
        {
          "indexed": false,
          "internalType": "uint256",
          "name": "bet",
          "type": "uint256"
        }
      ],
      "name": "GameStarted",
      "type": "event"
    },
    {
      "anonymous": false,
      "inputs": [
        {
          "indexed": true,
          "internalType": "uint256",
          "name": "gameId",
          "type": "uint256"
        },
        {
          "indexed": false,
          "internalType": "uint8",
          "name": "step",
          "type": "uint8"
        },
        {
          "indexed": false,
          "internalType": "string",
          "name": "reason",
          "type": "string"
        }
      ],
      "name": "StepRequestFailed",
      "type": "event"
    },
    {
      "anonymous": false,
      "inputs": [
        {
          "indexed": true,
          "internalType": "uint256",
          "name": "gameId",
          "type": "uint256"
        },
        {
          "indexed": false,
          "internalType": "uint8",
          "name": "step",
          "type": "uint8"
        },
        {
          "indexed": false,
          "internalType": "uint64",
          "name": "sequenceNumber",
          "type": "uint64"
        }
      ],
      "name": "StepRequested",
      "type": "event"
    },
    {
      "anonymous": false,
      "inputs": [
        {
          "indexed": true,
          "internalType": "uint256",
          "name": "gameId",
          "type": "uint256"
        },
        {
          "indexed": false,
          "internalType": "uint8",
          "name": "step",
          "type": "uint8"
        },
        {
          "indexed": false,
          "internalType": "bool",
          "name": "success",
          "type": "bool"
        }
      ],
      "name": "StepResult",
      "type": "event"
    },
    {
      "stateMutability": "payable",
      "type": "fallback"
    },
    {
      "inputs": [
        {
          "internalType": "uint64",
          "name": "sequence",
          "type": "uint64"
        },
        {
          "internalType": "address",
          "name": "provider",
          "type": "address"
        },
        {
          "internalType": "bytes32",
          "name": "randomNumber",
          "type": "bytes32"
        }
      ],
      "name": "_entropyCallback",
      "outputs": [],
      "stateMutability": "nonpayable",
      "type": "function"
    },
    {
      "inputs": [
        {
          "internalType": "uint256",
          "name": "gameId",
          "type": "uint256"
        }
      ],
      "name": "doCashout",
      "outputs": [],
      "stateMutability": "nonpayable",
      "type": "function"
    },
    {
      "inputs": [],
      "name": "entropyEnabled",
      "outputs": [
        {
          "internalType": "bool",
          "name": "",
          "type": "bool"
        }
      ],
      "stateMutability": "view",
      "type": "function"
    },
    {
      "inputs": [
        {
          "internalType": "uint256",
          "name": "",
          "type": "uint256"
        }
      ],
      "name": "games",
      "outputs": [
        {
          "internalType": "address",
          "name": "player",
          "type": "address"
        },
        {
          "internalType": "enum BerachainGame.Difficulty",
          "name": "difficulty",
          "type": "uint8"
        },
        {
          "internalType": "uint8",
          "name": "currentStep",
          "type": "uint8"
        },
        {
          "internalType": "uint256",
          "name": "bet",
          "type": "uint256"
        },
        {
          "internalType": "bool",
          "name": "active",
          "type": "bool"
        },
        {
          "internalType": "bool",
          "name": "lost",
          "type": "bool"
        },
        {
          "internalType": "bool",
          "name": "pendingRandomness",
          "type": "bool"
        }
      ],
      "stateMutability": "view",
      "type": "function"
    },
    {
      "inputs": [],
      "name": "getEntropyFee",
      "outputs": [
        {
          "internalType": "uint256",
          "name": "",
          "type": "uint256"
        }
      ],
      "stateMutability": "view",
      "type": "function"
    },
    {
      "inputs": [],
      "name": "getMinimumGameValue",
      "outputs": [
        {
          "internalType": "uint256",
          "name": "",
          "type": "uint256"
        }
      ],
      "stateMutability": "view",
      "type": "function"
    },
    {
      "inputs": [],
      "name": "nextGameId",
      "outputs": [
        {
          "internalType": "uint256",
          "name": "",
          "type": "uint256"
        }
      ],
      "stateMutability": "view",
      "type": "function"
    },
    {
      "inputs": [
        {
          "internalType": "uint256",
          "name": "gameId",
          "type": "uint256"
        },
        {
          "internalType": "bytes32",
          "name": "userRandomNumber",
          "type": "bytes32"
        }
      ],
      "name": "playStep",
      "outputs": [],
      "stateMutability": "payable",
      "type": "function"
    },
    {
      "inputs": [
        {
          "internalType": "bool",
          "name": "_enabled",
          "type": "bool"
        }
      ],
      "name": "setEntropyEnabled",
      "outputs": [],
      "stateMutability": "nonpayable",
      "type": "function"
    },
    {
      "inputs": [
        {
          "internalType": "enum BerachainGame.Difficulty",
          "name": "difficulty",
          "type": "uint8"
        },
        {
          "internalType": "bytes32",
          "name": "userRandomNumber",
          "type": "bytes32"
        }
      ],
      "name": "startGame",
      "outputs": [
        {
          "internalType": "uint256",
          "name": "gameId",
          "type": "uint256"
        }
      ],
      "stateMutability": "payable",
      "type": "function"
    },
    {
      "stateMutability": "payable",
      "type": "receive"
    }
  ],
  "bytecode": "0x608060408190526007805460ff1916600117905562001f4a388190039081908339810160408190526200003291620007d6565b6001600081905580546001600160a01b038085166001600160a01b0319928316178355600280549185169190921617905562000071906018906200080e565b60ff166001600160401b038111156200008e576200008e6200083c565b604051908082528060200260200182016040528015620000b8578160200160208202803683370190505b5060008052600660209081528151620000e49260008051602062001f0a83398151915292019062000683565b50620000f3601660016200080e565b60ff166001600160401b038111156200011057620001106200083c565b6040519080825280602002602001820160405280156200013a578160200160208202803683370190505b50600160005260066020908152815162000178927f3e5fec24aa4dc4e5aee2e025e51e1392c72a2500577559fae9665c6d52bd6a3192019062000683565b5062000187601460016200080e565b60ff166001600160401b03811115620001a457620001a46200083c565b604051908082528060200260200182016040528015620001ce578160200160208202803683370190505b506002600052600660209081528151620001fb9260008051602062001f2a83398151915292019062000683565b506200020a600f60016200080e565b60ff166001600160401b038111156200022757620002276200083c565b60405190808252806020026020018201604052801562000251578160200160208202803683370190505b5060036000526006602090815281516200027e9260008051602062001eea83398151915292019062000683565b50604080516103408101825260008082526127d8602080840191909152612bd193830193909352612fca60608301526133c360808301526137bc60a0830152613bb560c0830152613fae60e08301526143a76101008301526147a0610120830152614b99610140830152614f9261016083015261538b6101808301526157846101a0830152615b7d6101c0830152615f766101e083015261636f610200830152616768610220830152616b61610240830152616f5a61026083015261735361028083015261774c6102a0830152617b456102c0830152617f3e6102e083015261833761030083015261873061032083015280526006909152620003949060008051602062001f0a83398151915290601a620006d3565b50604080516102e0810182526000808252612b5c6020808401919091526152d093830193909352617a44606083015261a1b8608083015261c92c60a083015261f0a060c08301526201181460e083015262013f88610100830152620166fc61012083015262018e706101408301526201b5e46101608301526201dd58610180830152620204cc6101a083015262022c406101c0830152620253b46101e083015262027b286102008301526202a29c6102208301526202ca106102408301526202f184610260830152620318f86102808301526203406c6102a0830152620370786102c0830152600190526006909152620004b2907f3e5fec24aa4dc4e5aee2e025e51e1392c72a2500577559fae9665c6d52bd6a3190601762000717565b50604080516102a0810182526000808252612fa8602080840191909152616acc9383019390935261a5f0606083015261e114608083015262011c3860a08301526201575c60c08301526201928060e08301526201cda4610100830152620208c8610120830152620243ec61014083015262027f106101608301526202ba346101808301526202f5586101a08301526203307c6101c083015262036ba06101e08301526203a6c46102008301526203e1e861022083015262041d0c61024083015262045830610260830152624f72d3610280830152600290526006909152620005ad9060008051602062001f2a83398151915290601562000717565b5060408051610200810182526000808252613fac60208084019190915262037bc5938301939093526206b7de60608301526209f3f76080830152620d301060a083015262106c2960c08301526213a84260e08301526216e45b610100830152621a2074610120830152621d5c8d610140830152622098a66101608301526223d4bf610180830152622710d86101a0830152622a4cf16101c0830152631317fa306101e08301526003905260069091526200067a9060008051602062001eea8339815191529060106200075c565b50505062000852565b828054828255906000526020600020908101928215620006c1579160200282015b82811115620006c1578251825591602001919060010190620006a4565b50620006cf929150620007a2565b5090565b828054828255906000526020600020908101928215620006c1579160200282015b82811115620006c1578251829061ffff16905591602001919060010190620006f4565b828054828255906000526020600020908101928215620006c1579160200282015b82811115620006c1578251829062ffffff1690559160200191906001019062000738565b828054828255906000526020600020908101928215620006c1579160200282015b82811115620006c1578251829063ffffffff169055916020019190600101906200077d565b5b80821115620006cf5760008155600101620007a3565b80516001600160a01b0381168114620007d157600080fd5b919050565b60008060408385031215620007ea57600080fd5b620007f583620007b9565b91506200080560208401620007b9565b90509250929050565b60ff81811683821601908111156200083657634e487b7160e01b600052601160045260246000fd5b92915050565b634e487b7160e01b600052604160045260246000fd5b61168880620008626000396000f3fe60806040526004361061008f5760003560e01c806352a5f1f81161005657806352a5f1f8146101bc5780635c38a3bc146101dc578063b135bbb0146101ef578063b74bf09014610205578063edb02a601461021a57005b80630963054e146100985780630d5aa211146100c6578063117a5b90146100e657806326a6fd781461016f5780632d971e631461019957005b3661009657005b005b3480156100a457600080fd5b506100966100b3366004611269565b6007805460ff1916911515919091179055565b3480156100d257600080fd5b506100966100e136600461128b565b61022d565b3480156100f257600080fd5b5061015361010136600461128b565b6003602052600090815260409020805460018201546002909201546001600160a01b0382169260ff600160a01b8404811693600160a81b90048116928082169161010082048116916201000090041687565b60405161016697969594939291906112dc565b60405180910390f35b34801561017b57600080fd5b506007546101899060ff1681565b6040519015158152602001610166565b3480156101a557600080fd5b506101ae610432565b604051908152602001610166565b3480156101c857600080fd5b506100966101d736600461133f565b6104da565b6100966101ea36600461138c565b6105bb565b3480156101fb57600080fd5b506101ae60045481565b34801561021157600080fd5b506101ae610733565b6101ae6102283660046113ae565b61074d565b610235610996565b600081815260036020526040902080546001600160a01b031633146102915760405162461bcd60e51b815260206004820152600d60248201526c6e6f742d796f75722d67616d6560981b60448201526064015b60405180910390fd5b600281015460ff1680156102af57506002810154610100900460ff16155b6102e45760405162461bcd60e51b815260206004820152600660248201526518d85b9b9bdd60d21b6044820152606401610288565b600281015462010000900460ff16156103345760405162461bcd60e51b815260206004820152601260248201527170656e64696e672d72616e646f6d6e65737360701b6044820152606401610288565b60028101805460ff19169055805460018201546000916103689160ff600160a01b8304811692600160a81b900416906109ef565b9050804710156103af5760405162461bcd60e51b815260206004820152601260248201527118dbdb9d1c9858dd0b5a5b9cdbdb1d995b9d60721b6044820152606401610288565b827fd12934ab6b2c232d99d6b29373b2aa12b9c6cce99a5484c40be61e38627ab99a826040516103e191815260200190565b60405180910390a281546040516001600160a01b039091169082156108fc029083906000818181858888f19350505050158015610422573d6000803e3d6000fd5b50505061042f6001600055565b50565b60075460009060ff16801561045157506001546001600160a01b031615155b156104d457600154600254604051631711922960e31b81526001600160a01b03918216600482015291169063b88c914890602401602060405180830381865afa1580156104a2573d6000803e3d6000fd5b505050506040513d601f19601f820116820180604052508101906104c691906113de565b6001600160801b0316905090565b50600090565b60006104ee6001546001600160a01b031690565b90506001600160a01b0381166105465760405162461bcd60e51b815260206004820152601760248201527f456e74726f70792061646472657373206e6f74207365740000000000000000006044820152606401610288565b336001600160a01b038216146105aa5760405162461bcd60e51b815260206004820152602360248201527f4f6e6c7920456e74726f70792063616e2063616c6c20746869732066756e637460448201526234b7b760e91b6064820152608401610288565b6105b5848484610a7f565b50505050565b6105c3610996565b600082815260036020526040902080546001600160a01b0316331461061a5760405162461bcd60e51b815260206004820152600d60248201526c6e6f742d796f75722d67616d6560981b6044820152606401610288565b600281015460ff16801561063857506002810154610100900460ff16155b61066f5760405162461bcd60e51b8152602060048201526008602482015267696e61637469766560c01b6044820152606401610288565b600281015462010000900460ff16156106bc5760405162461bcd60e51b815260206004820152600f60248201526e616c72656164792d70656e64696e6760881b6044820152606401610288565b60006106c6610432565b9050803410156107185760405162461bcd60e51b815260206004820152601c60248201527f696e73756666696369656e742066656520666f7220656e74726f7079000000006044820152606401610288565b610723848483610b08565b505061072f6001600055565b5050565b600061073d610432565b61074890600161141d565b905090565b6000610757610996565b600034116107945760405162461bcd60e51b815260206004820152600a60248201526907374616b65203d3d20360b41b6044820152606401610288565b600061079e610432565b90508034116107ef5760405162461bcd60e51b815260206004820152601c60248201527f696e73756666696369656e742066656520666f7220656e74726f7079000000006044820152606401610288565b600480549060006107ff83611430565b9190505591506040518060e00160405280336001600160a01b03168152602001856003811115610831576108316112a4565b8152600060208201526040016108478334611449565b815260016020808301919091526000604080840182905260609093018190528581526003808352929020835181546001600160a01b039091166001600160a01b0319821681178355928501519193919284926001600160a81b03199092161790600160a01b9084908111156108be576108be6112a4565b02179055506040820151815460ff909116600160a81b0260ff60a81b199091161781556060820151600182015560808201516002909101805460a084015160c0909401511515620100000262ff0000199415156101000261ff00199415159490941661ffff1990921691909117929092179290921617905533827f94f16e44c79109eef01445060bd1ecab32afe33b66fc11d540728626ca3b96bc866109648534611449565b60405161097292919061145c565b60405180910390a3610985828483610b08565b506109906001600055565b92915050565b6002600054036109e85760405162461bcd60e51b815260206004820152601f60248201527f5265656e7472616e637947756172643a207265656e7472616e742063616c6c006044820152606401610288565b6002600055565b60008260ff16600003610a03575080610a78565b600060066000866003811115610a1b57610a1b6112a4565b6003811115610a2c57610a2c6112a4565b81526020019081526020016000208460ff1681548110610a4e57610a4e611477565b906000526020600020015490506127108184610a6a919061148d565b610a7491906114ba565b9150505b9392505050565b67ffffffffffffffff831660009081526005602052604081205490819003610adc5760405162461bcd60e51b815260206004820152601060248201526f696e76616c69642d73657175656e636560801b6044820152606401610288565b67ffffffffffffffff841660009081526005602052604081205581610b018282610da0565b5050505050565b60008381526003602052604081208054909190610b3090600160a81b900460ff1660016114ce565b8254909150610b4890600160a01b900460ff16610f64565b60ff168160ff161115610b855760405162461bcd60e51b81526020600482015260056024820152641b585e195960da1b6044820152606401610288565b60075460ff168015610ba157506001546001600160a01b031615155b15610d96576002828101805462ff000019166201000017905560015490546040516319cb825f60e01b81526001600160a01b039182166004820152602481018790529116906319cb825f90859060440160206040518083038185885af193505050508015610c2c575060408051601f3d908101601f19168201909252610c29918101906114e7565b60015b610d3457610c38611504565b806308c379a003610cb15750610c4c61155b565b80610c575750610cb3565b60028301805462ff00001916905560405186907f95af11ba58538c0fcacd50661f0d0c635d1d61610718f1c1f4e11346ac94b36790610c9990859085906115e5565b60405180910390a2610cab8686610fd0565b50610b01565b505b60028201805462ff0000191690556040805160ff8316815260208101829052601581830152742ab735b737bbb71032b73a3937b83c9032b93937b960591b6060820152905186917f95af11ba58538c0fcacd50661f0d0c635d1d61610718f1c1f4e11346ac94b367919081900360800190a2610d2f8585610fd0565b610b01565b67ffffffffffffffff8116600081815260056020908152604091829020899055815160ff861681529081019290925287917f6b62d8aedbd421058ecf21b9e4e720117e204684beb2fc882bd928e2c850a142910160405180910390a250610b01565b610b018585610fd0565b6000828152600360205260409020600281015462010000900460ff16610df65760405162461bcd60e51b815260206004820152600b60248201526a6e6f742d70656e64696e6760a81b6044820152606401610288565b60028101805462ff0000191690558054600090610e1c90600160a01b900460ff16611091565b90506000610e2e848361ffff16611101565b835490915085907f4b502164182f2d7793d9173b6b0ed6ebff462de90f38c894f1504450dbd39f7890610e6c90600160a81b900460ff1660016114ce565b6040805160ff909216825284151560208301520160405180910390a280610ef35760028301805461ffff1916610100179055825485907f03905497842696a6aa48d0127e47dc21b05d78a38f630396a3642eaf015a3ee690610ed990600160a81b900460ff1660016114ce565b60405160ff909116815260200160405180910390a2610b01565b82546001908490601590610f12908490600160a81b900460ff166114ce565b92506101000a81548160ff021916908360ff160217905550610f448360000160149054906101000a900460ff16610f64565b835460ff918216600160a81b90910490911603610b0157610b018561111a565b600080826003811115610f7957610f796112a4565b03610f8657506018919050565b6001826003811115610f9a57610f9a6112a4565b03610fa757506016919050565b6002826003811115610fbb57610fbb6112a4565b03610fc857506014919050565b50600f919050565b6000610fdd600143611449565b6040805191406020830181905290820184905242606083015244608083015260a08201859052915060009060c00160408051808303601f1901815291815281516020928301206000878152600390935291205490915084907f6b62d8aedbd421058ecf21b9e4e720117e204684beb2fc882bd928e2c850a1429061106c90600160a81b900460ff1660016114ce565b6040805160ff9092168252600060208301520160405180910390a26105b58482610da0565b6000808260038111156110a6576110a66112a4565b036110b45750612328919050565b60018260038111156110c8576110c86112a4565b036110d65750612134919050565b60028260038111156110ea576110ea6112a4565b036110f85750611b58919050565b5061157c919050565b6000806111106127108561163e565b9092119392505050565b6000818152600360205260409020600281015460ff16801561114657506002810154610100900460ff16155b61117b5760405162461bcd60e51b815260206004820152600660248201526518d85b9b9bdd60d21b6044820152606401610288565b60028101805460ff19169055805460018201546000916111af9160ff600160a01b8304811692600160a81b900416906109ef565b9050804710156111f65760405162461bcd60e51b815260206004820152601260248201527118dbdb9d1c9858dd0b5a5b9cdbdb1d995b9d60721b6044820152606401610288565b827fd12934ab6b2c232d99d6b29373b2aa12b9c6cce99a5484c40be61e38627ab99a8260405161122891815260200190565b60405180910390a281546040516001600160a01b039091169082156108fc029083906000818181858888f193505050501580156105b5573d6000803e3d6000fd5b60006020828403121561127b57600080fd5b81358015158114610a7857600080fd5b60006020828403121561129d57600080fd5b5035919050565b634e487b7160e01b600052602160045260246000fd5b600481106112d857634e487b7160e01b600052602160045260246000fd5b9052565b6001600160a01b038816815260e081016112f960208301896112ba565b60ff96909616604082015260608101949094529115156080840152151560a0830152151560c09091015292915050565b67ffffffffffffffff8116811461042f57600080fd5b60008060006060848603121561135457600080fd5b833561135f81611329565b925060208401356001600160a01b038116811461137b57600080fd5b929592945050506040919091013590565b6000806040838503121561139f57600080fd5b50508035926020909101359150565b600080604083850312156113c157600080fd5b8235600481106113d057600080fd5b946020939093013593505050565b6000602082840312156113f057600080fd5b81516001600160801b0381168114610a7857600080fd5b634e487b7160e01b600052601160045260246000fd5b8082018082111561099057610990611407565b60006001820161144257611442611407565b5060010190565b8181038181111561099057610990611407565b6040810161146a82856112ba565b8260208301529392505050565b634e487b7160e01b600052603260045260246000fd5b808202811582820484141761099057610990611407565b634e487b7160e01b600052601260045260246000fd5b6000826114c9576114c96114a4565b500490565b60ff818116838216019081111561099057610990611407565b6000602082840312156114f957600080fd5b8151610a7881611329565b600060033d111561151d5760046000803e5060005160e01c5b90565b601f8201601f1916810167ffffffffffffffff8111828210171561155457634e487b7160e01b600052604160045260246000fd5b6040525050565b600060443d10156115695790565b6040516003193d81016004833e81513d67ffffffffffffffff816024840111818411171561159957505050505090565b82850191508151818111156115b15750505050505090565b843d87010160208285010111156115cb5750505050505090565b6115da60208286010187611520565b509095945050505050565b60ff8316815260006020604081840152835180604085015260005b8181101561161c57858101830151858201606001528201611600565b506000606082860101526060601f19601f830116850101925050509392505050565b60008261164d5761164d6114a4565b50069056fea2646970667358221220a9b274202ec2f8ba643aa1fcae77f8a01400bb4d6b70297be548b4c1fa959f2c64736f6c6343000814003375f96ab15d697e93042dc45b5c896c4b27e89bb6eaf39475c5c371cb2513f7d254cdd369e4e8a8515e52ca72ec816c2101831ad1f18bf44102ed171459c9b4f88819ef417987f8ae7a81f42cdfb18815282fe989326fbff903d13cf0e03ace29",
  "linkReferences": {},
  "deployedLinkReferences": {}
}