{
  "_format": "hh-sol-artifact-1",
  "contractName": "BerachainGame",
  "sourceName": "contracts/BerachainGame.sol",
  "abi": [
    {
      "inputs": [],
      "stateMutability": "payable",
      "type": "constructor"
    },
    {
      "anonymous": false,
      "inputs": [
        {
          "indexed": true,
          "internalType": "uint256",
          "name": "gameId",
          "type": "uint256"
        },
        {
          "indexed": false,
          "internalType": "uint256",
          "name": "payout",
          "type": "uint256"
        }
      ],
      "name": "Cashout",
      "type": "event"
    },
    {
      "anonymous": false,
      "inputs": [
        {
          "indexed": true,
          "internalType": "uint256",
          "name": "gameId",
          "type": "uint256"
        },
        {
          "indexed": false,
          "internalType": "uint8",
          "name": "step",
          "type": "uint8"
        }
      ],
      "name": "GameLost",
      "type": "event"
    },
    {
      "anonymous": false,
      "inputs": [
        {
          "indexed": true,
          "internalType": "uint256",
          "name": "gameId",
          "type": "uint256"
        },
        {
          "indexed": true,
          "internalType": "address",
          "name": "player",
          "type": "address"
        },
        {
          "indexed": false,
          "internalType": "enum BerachainGame.Difficulty",
          "name": "difficulty",
          "type": "uint8"
        },
        {
          "indexed": false,
          "internalType": "uint256",
          "name": "bet",
          "type": "uint256"
        }
      ],
      "name": "GameStarted",
      "type": "event"
    },
    {
      "anonymous": false,
      "inputs": [
        {
          "indexed": true,
          "internalType": "address",
          "name": "previousOwner",
          "type": "address"
        },
        {
          "indexed": true,
          "internalType": "address",
          "name": "newOwner",
          "type": "address"
        }
      ],
      "name": "OwnershipTransferred",
      "type": "event"
    },
    {
      "anonymous": false,
      "inputs": [
        {
          "indexed": true,
          "internalType": "uint256",
          "name": "gameId",
          "type": "uint256"
        },
        {
          "indexed": false,
          "internalType": "uint8",
          "name": "step",
          "type": "uint8"
        }
      ],
      "name": "StepRequested",
      "type": "event"
    },
    {
      "anonymous": false,
      "inputs": [
        {
          "indexed": true,
          "internalType": "uint256",
          "name": "gameId",
          "type": "uint256"
        },
        {
          "indexed": false,
          "internalType": "uint8",
          "name": "step",
          "type": "uint8"
        },
        {
          "indexed": false,
          "internalType": "bool",
          "name": "success",
          "type": "bool"
        }
      ],
      "name": "StepResult",
      "type": "event"
    },
    {
      "stateMutability": "payable",
      "type": "fallback"
    },
    {
      "inputs": [
        {
          "internalType": "uint256",
          "name": "gameId",
          "type": "uint256"
        }
      ],
      "name": "doCashout",
      "outputs": [],
      "stateMutability": "nonpayable",
      "type": "function"
    },
    {
      "inputs": [
        {
          "internalType": "uint256",
          "name": "",
          "type": "uint256"
        }
      ],
      "name": "games",
      "outputs": [
        {
          "internalType": "address",
          "name": "player",
          "type": "address"
        },
        {
          "internalType": "enum BerachainGame.Difficulty",
          "name": "difficulty",
          "type": "uint8"
        },
        {
          "internalType": "uint8",
          "name": "currentStep",
          "type": "uint8"
        },
        {
          "internalType": "uint256",
          "name": "bet",
          "type": "uint256"
        },
        {
          "internalType": "bool",
          "name": "active",
          "type": "bool"
        },
        {
          "internalType": "bool",
          "name": "lost",
          "type": "bool"
        }
      ],
      "stateMutability": "view",
      "type": "function"
    },
    {
      "inputs": [],
      "name": "nextGameId",
      "outputs": [
        {
          "internalType": "uint256",
          "name": "",
          "type": "uint256"
        }
      ],
      "stateMutability": "view",
      "type": "function"
    },
    {
      "inputs": [],
      "name": "owner",
      "outputs": [
        {
          "internalType": "address",
          "name": "",
          "type": "address"
        }
      ],
      "stateMutability": "view",
      "type": "function"
    },
    {
      "inputs": [
        {
          "internalType": "uint256",
          "name": "gameId",
          "type": "uint256"
        }
      ],
      "name": "playStep",
      "outputs": [],
      "stateMutability": "nonpayable",
      "type": "function"
    },
    {
      "inputs": [],
      "name": "renounceOwnership",
      "outputs": [],
      "stateMutability": "nonpayable",
      "type": "function"
    },
    {
      "inputs": [
        {
          "internalType": "enum BerachainGame.Difficulty",
          "name": "diff",
          "type": "uint8"
        },
        {
          "internalType": "uint256[]",
          "name": "table",
          "type": "uint256[]"
        }
      ],
      "name": "setMultipliers",
      "outputs": [],
      "stateMutability": "nonpayable",
      "type": "function"
    },
    {
      "inputs": [
        {
          "internalType": "enum BerachainGame.Difficulty",
          "name": "difficulty",
          "type": "uint8"
        }
      ],
      "name": "startGame",
      "outputs": [
        {
          "internalType": "uint256",
          "name": "gameId",
          "type": "uint256"
        }
      ],
      "stateMutability": "payable",
      "type": "function"
    },
    {
      "inputs": [
        {
          "internalType": "address",
          "name": "newOwner",
          "type": "address"
        }
      ],
      "name": "transferOwnership",
      "outputs": [],
      "stateMutability": "nonpayable",
      "type": "function"
    },
    {
      "stateMutability": "payable",
      "type": "receive"
    }
  ],
  "bytecode": "0x60806040526200000f3362000610565b6001808055620000229060189062000796565b60ff166001600160401b038111156200003f576200003f620007c4565b60405190808252806020026020018201604052801562000069578160200160208202803683370190505b506000805260046020908152815162000095926000805160206200189783398151915292019062000660565b50620000a46016600162000796565b60ff166001600160401b03811115620000c157620000c1620007c4565b604051908082528060200260200182016040528015620000eb578160200160208202803683370190505b50600160005260046020908152815162000118926000805160206200187783398151915292019062000660565b50620001276014600162000796565b60ff166001600160401b03811115620001445762000144620007c4565b6040519080825280602002602001820160405280156200016e578160200160208202803683370190505b5060026000526004602090815281516200019b92600080516020620018d783398151915292019062000660565b50620001aa600f600162000796565b60ff166001600160401b03811115620001c757620001c7620007c4565b604051908082528060200260200182016040528015620001f1578160200160208202803683370190505b5060036000526004602090815281516200021e92600080516020620018b783398151915292019062000660565b50604080516103408101825260008082526127d8602080840191909152612bd193830193909352612fca60608301526133c360808301526137bc60a0830152613bb560c0830152613fae60e08301526143a76101008301526147a0610120830152614b99610140830152614f9261016083015261538b6101808301526157846101a0830152615b7d6101c0830152615f766101e083015261636f610200830152616768610220830152616b61610240830152616f5a61026083015261735361028083015261774c6102a0830152617b456102c0830152617f3e6102e08301526183376103008301526187306103208301528052600490915262000334906000805160206200189783398151915290601a620006b0565b50604080516102e0810182526000808252612b5c6020808401919091526152d093830193909352617a44606083015261a1b8608083015261c92c60a083015261f0a060c08301526201181460e083015262013f88610100830152620166fc61012083015262018e706101408301526201b5e46101608301526201dd58610180830152620204cc6101a083015262022c406101c0830152620253b46101e083015262027b286102008301526202a29c6102208301526202ca106102408301526202f184610260830152620318f86102808301526203406c6102a0830152620370786102c0830152600190526004909152620004419060008051602062001877833981519152906017620006f4565b50604080516102a0810182526000808252612fa8602080840191909152616acc9383019390935261a5f0606083015261e114608083015262011c3860a08301526201575c60c08301526201928060e08301526201cda4610100830152620208c8610120830152620243ec61014083015262027f106101608301526202ba346101808301526202f5586101a08301526203307c6101c083015262036ba06101e08301526203a6c46102008301526203e1e861022083015262041d0c61024083015262045830610260830152624f72d36102808301526002905260049091526200053c90600080516020620018d7833981519152906015620006f4565b5060408051610200810182526000808252613fac60208084019190915262037bc5938301939093526206b7de60608301526209f3f76080830152620d301060a083015262106c2960c08301526213a84260e08301526216e45b610100830152621a2074610120830152621d5c8d610140830152622098a66101608301526223d4bf610180830152622710d86101a0830152622a4cf16101c0830152631317fa306101e08301526003905260049091526200060990600080516020620018b783398151915290601062000739565b50620007da565b600080546001600160a01b038381166001600160a01b0319831681178455604051919092169283917f8be0079c531659141344cd1fd0a4f28419497f9722a3daafe3b4186f6b6457e09190a35050565b8280548282559060005260206000209081019282156200069e579160200282015b828111156200069e57825182559160200191906001019062000681565b50620006ac9291506200077f565b5090565b8280548282559060005260206000209081019282156200069e579160200282015b828111156200069e578251829061ffff16905591602001919060010190620006d1565b8280548282559060005260206000209081019282156200069e579160200282015b828111156200069e578251829062ffffff1690559160200191906001019062000715565b8280548282559060005260206000209081019282156200069e579160200282015b828111156200069e578251829063ffffffff169055916020019190600101906200075a565b5b80821115620006ac576000815560010162000780565b60ff8181168382160190811115620007be57634e487b7160e01b600052601160045260246000fd5b92915050565b634e487b7160e01b600052604160045260246000fd5b61108d80620007ea6000396000f3fe6080604052600436106100845760003560e01c80638da5cb5b116100565780638da5cb5b14610165578063b135bbb01461018d578063e6ab6079146101b1578063f2fde38b146101c4578063ff0265aa146101e457005b80630d5aa2111461008d578063117a5b90146100ad578063264ac73f14610130578063715018a61461015057005b3661008b57005b005b34801561009957600080fd5b5061008b6100a8366004610e13565b610204565b3480156100b957600080fd5b506101156100c8366004610e13565b60026020819052600091825260409091208054600182015491909201546001600160a01b0383169260ff600160a01b8204811693600160a81b909204811692808216916101009091041686565b60405161012796959493929190610e64565b60405180910390f35b34801561013c57600080fd5b5061008b61014b366004610e13565b6103b8565b34801561015c57600080fd5b5061008b61047f565b34801561017157600080fd5b506000546040516001600160a01b039091168152602001610127565b34801561019957600080fd5b506101a360035481565b604051908152602001610127565b6101a36101bf366004610eb9565b610493565b3480156101d057600080fd5b5061008b6101df366004610ed4565b610649565b3480156101f057600080fd5b5061008b6101ff366004610efd565b6106bf565b61020c61076b565b600081815260026020526040902080546001600160a01b031633146102685760405162461bcd60e51b815260206004820152600d60248201526c6e6f742d796f75722d67616d6560981b60448201526064015b60405180910390fd5b600281015460ff16801561028657506002810154610100900460ff16155b6102bb5760405162461bcd60e51b815260206004820152600660248201526518d85b9b9bdd60d21b604482015260640161025f565b60028101805460ff19169055805460018201546000916102ef9160ff600160a01b8304811692600160a81b900416906107c4565b9050804710156103365760405162461bcd60e51b815260206004820152601260248201527118dbdb9d1c9858dd0b5a5b9cdbdb1d995b9d60721b604482015260640161025f565b827fd12934ab6b2c232d99d6b29373b2aa12b9c6cce99a5484c40be61e38627ab99a8260405161036891815260200190565b60405180910390a281546040516001600160a01b039091169082156108fc029083906000818181858888f193505050501580156103a9573d6000803e3d6000fd5b5050506103b560018055565b50565b6103c061076b565b600081815260026020526040902080546001600160a01b031633146104175760405162461bcd60e51b815260206004820152600d60248201526c6e6f742d796f75722d67616d6560981b604482015260640161025f565b600281015460ff16801561043557506002810154610100900460ff16155b61046c5760405162461bcd60e51b8152602060048201526008602482015267696e61637469766560c01b604482015260640161025f565b61047582610854565b506103b560018055565b610487610932565b610491600061098c565b565b600061049d61076b565b600034116104da5760405162461bcd60e51b815260206004820152600a60248201526907374616b65203d3d20360b41b604482015260640161025f565b600380549060006104ea83610f99565b9190505590506040518060c00160405280336001600160a01b0316815260200183600381111561051c5761051c610e2c565b8152600060208083018290523460408085019190915260016060850152608090930182905284825260028152919020825181546001600160a01b039091166001600160a01b031982168117835592840151919283916001600160a81b03191617600160a01b83600381111561059357610593610e2c565b0217905550604082810151825460ff909116600160a81b0260ff60a81b199091161782556060830151600183015560808301516002909201805460a09094015115156101000261ff00199315159390931661ffff19909416939093179190911790915551339082907f94f16e44c79109eef01445060bd1ecab32afe33b66fc11d540728626ca3b96bc9061062a9086903490610fb2565b60405180910390a361063b81610854565b61064460018055565b919050565b610651610932565b6001600160a01b0381166106b65760405162461bcd60e51b815260206004820152602660248201527f4f776e61626c653a206e6577206f776e657220697320746865207a65726f206160448201526564647265737360d01b606482015260840161025f565b6103b58161098c565b6106c7610932565b6106d0836109dc565b6106db906001610fcd565b60ff1681146107215760405162461bcd60e51b815260206004820152601260248201527177726f6e672d6c656e677468207461626c6560701b604482015260640161025f565b81816004600086600381111561073957610739610e2c565b600381111561074a5761074a610e2c565b81526020019081526020016000209190610765929190610db3565b50505050565b6002600154036107bd5760405162461bcd60e51b815260206004820152601f60248201527f5265656e7472616e637947756172643a207265656e7472616e742063616c6c00604482015260640161025f565b6002600155565b60008260ff166000036107d857508061084d565b6000600460008660038111156107f0576107f0610e2c565b600381111561080157610801610e2c565b81526020019081526020016000208460ff168154811061082357610823610fec565b90600052602060002001549050612710818461083f9190611002565b610849919061102f565b9150505b9392505050565b6000818152600260205260408120805490919061087c90600160a81b900460ff166001610fcd565b825490915061089490600160a01b900460ff166109dc565b60ff168160ff1611156108d15760405162461bcd60e51b81526020600482015260056024820152641b585e195960da1b604482015260640161025f565b604080514460208083019190915242828401526060820186905260f884901b6001600160f81b031916608083015282516061818403018152608190920190925280519101206000906109269061271090611043565b90506107658482610a48565b6000546001600160a01b031633146104915760405162461bcd60e51b815260206004820181905260248201527f4f776e61626c653a2063616c6c6572206973206e6f7420746865206f776e6572604482015260640161025f565b600080546001600160a01b038381166001600160a01b0319831681178455604051919092169283917f8be0079c531659141344cd1fd0a4f28419497f9722a3daafe3b4186f6b6457e09190a35050565b6000808260038111156109f1576109f1610e2c565b036109fe57506018919050565b6001826003811115610a1257610a12610e2c565b03610a1f57506016919050565b6002826003811115610a3357610a33610e2c565b03610a4057506014919050565b50600f919050565b60008281526002602052604081208054909190610a6e90600160a01b900460ff16610bf2565b825490915061ffff821684109085907f4b502164182f2d7793d9173b6b0ed6ebff462de90f38c894f1504450dbd39f7890610ab490600160a81b900460ff166001610fcd565b6040805160ff909216825284151560208301520160405180910390a280610b3b5760028301805461ffff1916610100179055825485907f03905497842696a6aa48d0127e47dc21b05d78a38f630396a3642eaf015a3ee690610b2190600160a81b900460ff166001610fcd565b60405160ff909116815260200160405180910390a2610beb565b82546001908490601590610b5a908490600160a81b900460ff16610fcd565b82546101009290920a60ff8181021990931691831602179091558454604051600160a81b90910490911681528691507f3049dec64bfa4547b18f4f06f487b8752dcb5684014bbaa4fefb72b2bf67e94c9060200160405180910390a28254610bcb90600160a01b900460ff166109dc565b835460ff918216600160a81b90910490911603610beb57610beb85610c62565b5050505050565b600080826003811115610c0757610c07610e2c565b03610c155750612580919050565b6001826003811115610c2957610c29610e2c565b03610c375750612260919050565b6002826003811115610c4b57610c4b610e2c565b03610c595750611f40919050565b50611770919050565b60008181526002602081905260409091209081015460ff168015610c9057506002810154610100900460ff16155b610cc55760405162461bcd60e51b815260206004820152600660248201526518d85b9b9bdd60d21b604482015260640161025f565b60028101805460ff1916905580546001820154600091610cf99160ff600160a01b8304811692600160a81b900416906107c4565b905080471015610d405760405162461bcd60e51b815260206004820152601260248201527118dbdb9d1c9858dd0b5a5b9cdbdb1d995b9d60721b604482015260640161025f565b827fd12934ab6b2c232d99d6b29373b2aa12b9c6cce99a5484c40be61e38627ab99a82604051610d7291815260200190565b60405180910390a281546040516001600160a01b039091169082156108fc029083906000818181858888f19350505050158015610765573d6000803e3d6000fd5b828054828255906000526020600020908101928215610dee579160200282015b82811115610dee578235825591602001919060010190610dd3565b50610dfa929150610dfe565b5090565b5b80821115610dfa5760008155600101610dff565b600060208284031215610e2557600080fd5b5035919050565b634e487b7160e01b600052602160045260246000fd5b60048110610e6057634e487b7160e01b600052602160045260246000fd5b9052565b6001600160a01b038716815260c08101610e816020830188610e42565b60ff95909516604082015260608101939093529015156080830152151560a09091015292915050565b80356004811061064457600080fd5b600060208284031215610ecb57600080fd5b61084d82610eaa565b600060208284031215610ee657600080fd5b81356001600160a01b038116811461084d57600080fd5b600080600060408486031215610f1257600080fd5b610f1b84610eaa565b9250602084013567ffffffffffffffff80821115610f3857600080fd5b818601915086601f830112610f4c57600080fd5b813581811115610f5b57600080fd5b8760208260051b8501011115610f7057600080fd5b6020830194508093505050509250925092565b634e487b7160e01b600052601160045260246000fd5b600060018201610fab57610fab610f83565b5060010190565b60408101610fc08285610e42565b8260208301529392505050565b60ff8181168382160190811115610fe657610fe6610f83565b92915050565b634e487b7160e01b600052603260045260246000fd5b8082028115828204841417610fe657610fe6610f83565b634e487b7160e01b600052601260045260246000fd5b60008261103e5761103e611019565b500490565b60008261105257611052611019565b50069056fea264697066735822122072575b07f7bdf49331c2a0bcbb642e9600dbc23cc375461cd1d69978412542e764736f6c63430008140033abd6e7cb50984ff9c2f3e18a2660c3353dadf4e3291deeb275dae2cd1e44fe0517ef568e3e12ab5b9c7254a8d58478811de00f9e6eb34345acd53bf8fd09d3ec2e174c10e159ea99b867ce3205125c24a42d128804e4070ed6fcc8cc98166aa091da3fd0782e51c6b3986e9e672fd566868e71f3dbc2d6c2cd6fbb3e361af2a7",
  "linkReferences": {},
  "deployedLinkReferences": {}
}